:020000040800F2
:10000000200400209D0100088903000881030008E6
:1000100085030008E5010008AF09000800000000A2
:10002000000000000000000000000000650500085E
:10003000E90100080000000019040008F9060008A2
:10004000B7010008B7010008B7010008B7010008B0
:10005000B7010008B7010008B7010008B7010008A0
:10006000B7010008B7010008B7010008B701000890
:10007000B7010008B7010008B7010008B701000880
:10008000B7010008B7010008B7010008B701000870
:10009000B7010008B7010008B7010008B701000860
:1000A000B7010008B7010008B7010008B701000850
:1000B000B7010008B7010008B7010008B701000840
:1000C000B7010008B7010008B7010008B701000830
:1000D000B701000879070008B7010008A907000860
:1000E000B7010008B7010008B7010008B701000810
:1000F000B7010008B7010008B7010008B701000800
:10010000B7010008B7010008B7010008B7010008EF
:10011000B7010008B7010008B7010008B7010008DF
:10012000B7010008B7010008B7010008B7010008CF
:10013000B7010008B7010008B7010008B7010008BF
:10014000B7010008B7010008B7010008B7010008AF
:10015000B7010008B7010008B7010008B70100089F
:10016000B7010008B7010008B7010008B70100088F
:10017000B7010008B7010008B7010008B70100087F
:10018000B7010008B7010008DFF80CD000F018F83C
:1001900000480047750B00082004002006488047EF
:1001A00006480047FEE7FEE7FEE7FEE7FEE7FEE75C
:1001B000FEE7FEE7FEE7FEE71107000889010008F9
:1001C000064C074D06E0E06840F0010394E80700A4
:1001D00098471034AC42F6D3FFF7DAFFA00D0008C1
:1001E000C00D000800BFFEE77047000000B50346E1
:1001F000094800F01BFD0948036000BF074800687C
:100200000028FBD14FF0E020006920F001004FF002
:10021000E021086100BD00003F90020014000020B2
:10022000F0B50A4600210023002400BF3DE001256F
:1002300005FA01F3156805EA03049C4234D1056808
:100240004F000326BE40B543056015794E00B5400A
:100250000668354305601579012D02D01579022D08
:1002600016D185684F000326BE40B5438560557999
:100270004E00B540866835438560456801268E404E
:10028000B5434560456896798E40B6B235434560C2
:10029000C5684F000326BE40B543C560D5794E0002
:1002A000B540C6683543C560491C1029BFD3F0BDB1
:1002B000F0B5002300244D07ED0E02FA05F3CE1031
:1002C00000F1200555F826504E07F70E0F26BE40C8
:1002D000B543CF1000F1200646F82750CE1000F1AC
:1002E000200555F8265045EA0304CE1000F12005FC
:1002F00045F82640F0BD0246002013690B400BB1C3
:10030000012000E00020704741837047018370475F
:1003100010B5002000F09EF9012000F0ABF900209C
:1003200000F0B8F9012000F0C7F910BD10B50120A8
:1003300000F090F9002000F09DF9002000F0AAF9EB
:10034000002000F0B9F910BD10B5002000F082F9CE
:10035000002000F08FF9012000F09CF9002000F04F
:10036000ABF910BD10B5012000F074F9002000F0C9
:1003700081F9012000F08EF9002000F09DF910BDF8
:1003800000BFFEE700BFFEE77047000070B5002128
:1003900000230F22C4781CB3174C246804F4E064D3
:1003A000C4F5E064C4F30721C1F10404E3B20A41D7
:1003B00044789C40E1B28478144021430C07210E1C
:1003C0000E4C05786155047804F01F050124AC40FB
:1003D00005786D11AD0005F1E025C5F8004109E093
:1003E000047804F01F050124AC40054D0678761111
:1003F00045F8264070BD00000CED00E000E400E090
:1004000080E100E002490143024A116070470000A8
:100410000000FA050CED00E07047000029B1064A23
:1004200012680243044B1A6004E0034A12688243D4
:10043000014B1A60704700003038024029B1064A6B
:1004400012680243044B1A6004E0034A12688243B4
:10045000014B1A60704700004038024029B1064A3B
:1004600012680243044B1A6004E0034A1268824394
:10047000014B1A607047000044380240F0B500217B
:1004800000220024022500260223324F3F6807F095
:100490000C0121B1042905D0082937D105E02E4FE0
:1004A000076036E02D4F076033E02A4F3F1F3F685B
:1004B000C7F38056274F3F1F3F6807F03F036EB1D9
:1004C000264FB7FBF3F7DFF88CC0ACF1040CDCF877
:1004D00000C0CCF3881C07FB0CF40CE01E4FB7FBEC
:1004E000F3F7DFF870C0ACF1040CDCF800C0CCF31B
:1004F000881C07FB0CF4174F3F1F3F68C7F30147E9
:100500007F1C7D00B4FBF5F7076002E0124F076027
:1005100000BF00BF0F4F3F6807F0F0010909104FFF
:100520007A5C0768D74047600A4F3F6807F4E0519C
:10053000890A0B4F7A5C4768D7408760054F3F6850
:1005400007F46041490B064F7A5C4768D740C760A3
:10055000F0BD0000083802400024F40000127A00C8
:1005600000000020704700000CB5002001900090B2
:100570003448006840F480303249086000BF314898
:10058000006800F4003000900198401C0190009831
:1005900018B90198B0F5A04FF1D12A48006800F4CD
:1005A000003010B10120009001E000200090009880
:1005B000012846D123484030006840F0805021494E
:1005C000403108602048006840F440401E490860FF
:1005D0001C48083000681B4908310860084600685C
:1005E00040F4004008600846006840F4A0500860ED
:1005F0001648091F0860081F006840F08070091F36
:10060000086000BF0F48006800F000700028F9D0B3
:1006100040F205700E4908600A480830006820F072
:1006200003000849083108600846006840F00200ED
:10063000086000BF03480830006800F00C0008287C
:10064000F8D10CBD0038024000700040085440074B
:10065000003C024010B5044624B940210448FFF78D
:1006600053FE03E040210248FFF750FE10BD00009A
:100670000008024010B5044624B980210448FFF761
:1006800043FE03E080210248FFF740FE10BD00005A
:100690000008024010B504462CB94FF4807105489B
:1006A000FFF732FE04E04FF480710248FFF72EFEA0
:1006B00010BD00000008024010B504462CB94FF4EC
:1006C00000710548FFF720FE04E04FF40071024876
:1006D000FFF71CFE10BD00000008024010B500200E
:1006E000FFF7B8FF0020FFF7C5FF0020FFF7D2FF9C
:1006F0000020FFF7E1FF10BD0448006820B1034867
:100700000068401E01490860704700001400002086
:1007100010B51548006840F470001349086013488C
:10072000006840F001001149086000200F490831BD
:1007300008600E4800680E4908400C4908600D48E2
:10074000091D0860081F006820F48020091F086048
:10075000002006490C310860FFF706FF4FF00060EB
:1007600001498039086010BD88ED00E00038024082
:10077000FFFFF6FE1030002410B540F22551084866
:1007800000F052F8012809D1054800F007F90549A1
:10079000087040F22551024800F01EF810BD00001C
:1007A000001001401000002010B540F2255108480B
:1007B00000F03AF8012809D1054800F0EFF80549A2
:1007C000087040F22551024800F006F810BD000004
:1007D000004800401000002010B50022002340F621
:1007E0006A14A14200D100BF0A1201249440A3B2AE
:1007F000DC43048010BD21B1828942F40052828121
:1008000004E082894DF6FF731A40828170470246E8
:100810000020B1F5007F00D100BF13880B400BB161
:10082000012000E00020704770B50246002400233C
:100830000025002040F66A16B14200D100BFC1F386
:10084000421501F01F03012606FA03F3012D02D120
:100850009689334006E0022D02D1168A334001E02A
:10086000968A33400C12012606FA04F416883440A6
:1008700013B10CB1012000E0002070BDF0B50346BB
:10088000002400260025002040F66A17B94200D156
:1008900000BF1846C1F3421401F01F06012707FAF2
:1008A00006F5012C01D10C3004E0022C01D11030EE
:1008B00000E014301AB107682F43076002E00768B0
:1008C000AF430760F0BD00002DE9FF4705460E4627
:1008D0000024A14600BFA046B08900B100BF2C8A09
:1008E00024F44054F08804432C82AC8941F20C601B
:1008F0008443B08831890843718908430443AC813B
:10090000AC8A24F44074B0890443AC826846FFF793
:10091000B5FD2048854202D01F48854202D1DDF84E
:100920000C9001E0DDF80890A88900F4004040B187
:1009300009EBC90000EB091031684900B0FBF1F781
:1009400007E009EBC90000EB091031688900B0FB32
:10095000F1F76420B7FBF0F004012009642101FBEA
:100960001078A88900F4004040B1322000EBC800A4
:10097000B0FBF1F000F00700044308E0322000EB88
:1009800008106421B0FBF1F000F00F0004432C814B
:10099000BDE8FF870010014000140140014688882F
:1009A000C0F308007047C1F308028280704700BF9F
:1009B000FEE700000FB4054B10B503A9044A0298E6
:1009C00000F017F810BC5DF814FB00004D0B000898
:1009D0001800002002E008C8121F08C1002AFAD13E
:1009E00070477047002001E001C1121F002AFBD1AF
:1009F00070472DE9F84F99469246884605460027EC
:100A000006E025280AD051464A4690476D1C7F1CB7
:100A100028780028F5D13846BDE8F88F002315F86E
:100A2000011F18462E2915D115F8011F04232A2964
:100A30000DD06FF02F022978A1F13004092C09D8CC
:100A400000EB800002EB400008446D1CF3E758F80F
:100A5000040B6D1C2A78002ADDD0632A07D0732A84
:100A60000FD0104651464A4690477F1C2AE018F89E
:100A7000042B8DF8002000218DF801106E46012115
:100A800003E058F8046B4FF0FF315A074FF00004B1
:100A900001D409E0641C84420BDA8C42FADB325D3B
:100AA000002AF7D105E0641C8C42FCDB305D002895
:100AB000F9D1274404E016F8010B51464A46904705
:100AC000641EF8D26D1CA3E770B54FF400711E4888
:100AD000FFF711FC04464FF480711B48FFF70BFC35
:100AE000054664B95DB9FFF73DFC6420FFF77EFB66
:100AF000FFF7F4FD4FF4C870FFF778FB23E0012CFB
:100B00000CD15DB9FFF712FC6420FFF76FFBFFF714
:100B1000E5FD4FF4C870FFF769FB14E06CB9012DD7
:100B20000BD1FFF711FC6420FFF760FBFFF7D6FD48
:100B30004FF4C870FFF75AFB05E0012C03D1012DDB
:100B400001D1FFF7CBFD70BD0004024070B5044633
:100B50000D4607480088E1B20548FFF724FF00BFB3
:100B600040210348FFF753FE0028F9D0204670BD0E
:100B700000480040252000F03DF800F083F800F028
:100B800063F82DE01748017817A0FFF713FF154809
:100B90000078312802D1FFF7E5FB21E01148007809
:100BA000302802D1FFF7B4FB1AE00E480078322853
:100BB00002D1FFF7C9FB13E00A480078332802D1BD
:100BC000FFF7B4FB0CE007480078342802D1FFF7A8
:100BD00085FD05E003480078352801D1FFF774FF53
:100BE000D0E7000010000020796F752073656E64F7
:100BF00025630A001CB5044601210420FFF70EFC02
:100C000001208DF8040000208DF806004FF470706C
:100C1000009000208DF8070002208DF8050069463D
:100C20000148FFF7FDFA1CBD0008024000214FF00B
:100C3000E02211611146096941F007011161114675
:100C400048610021916170471CB501210220FFF726
:100C5000E5FB01214FF44040FFF700FC00208DF838
:100C600004004FF44070009000208DF8070002202F
:100C70008DF8050069460248FFF7D2FA1CBD000056
:100C80000004024000B587B001210846FFF7C6FB0B
:100C900001210220FFF7C2FB01211020FFF7DEFB3C
:100CA00001218804FFF7CAFB02208DF818004FF4D9
:100CB000C060059000208DF81B0002208DF81900FF
:100CC00005A93348FFF7ACFA4FF44060059005A939
:100CD0003048FFF7A5FA072209212D48FFF7E8FA67
:100CE00007220A212A48FFF7E3FA07220A212948A6
:100CF000FFF7DEFA07220B212648FFF7D9FA4FF457
:100D0000E13001900020ADF810000C20ADF80E008D
:100D10000020ADF80C00ADF80A00ADF8080001A9FC
:100D20001D48FFF7D1FD4FF41650019001A91B4853
:100D3000FFF7CAFD012240F225511748FFF79EFD3B
:100D4000012240F225511548FFF798FD4FF4A060AD
:100D5000FFF758FB25208DF8000001208DF80300D7
:100D600002208DF801008DF802006846FFF70EFBA7
:100D700027208DF800006846FFF708FB0121064890
:100D8000FFF739FD01210548FFF735FD07B000BD2C
:100D900000000240000402400010014000480040F2
:100DA000C00D0008000000201C000000D40900084D
:100DB000DC0D00081C00002004040000E409000809
:100DC00000000000010203040102030406070809F1
:0C0DD00000000000000000000000000017
:040000050800018965
:00000001FF
